:0800000022C082C0FDCFFCCF3D
:10000800FBCFFACFF9CFF8CF46C093C0F5CFF4CFE6
:10001800F3CFF2CFF1CFF0CFEFCFEECFEDCF00009F
:10002800000000000001C0F9A4B0999282F8809005
:100038000800040026000A0061012E000000F89460
:10004800EE27ECBBF1E0FBBFEBBFE5BF8DE0A2E024
:10005800BB27ED938A95E9F780E094E0A0E6ED935D
:100068000197E9F7E8E3F0E085919591009761F051
:10007800A591B59105901590BF01F00105900D92DD
:100088000197E1F7FB01F0CFEFE5EDBFE4E0EEBF4C
:10009800C0E6D1E05CC00A921A92FA926A937A9307
:1000A8008A939A93AA93BA93EA93FA93EFB7EA9347
:1000B80080D1F40131964F01AFD0E130A0E0FA07CA
:1000C80089F47CD1DCD1EA1BFB0B11F4B9980AC086
:1000D800ED2DD301F0E0AE17BF0708F0C19AF30188
:1000E80031963F01E991EFBFF991E991B991A99151
:1000F8009991899179916991F99019900990189538
:10010800EA93EFB7EA93C198882499246624772460
:10011800C59B05C0E9B7EB7FE9BFC19806C0C59983
:1001280004C0E9B7E460E9BF44D1E991EFBFE991C0
:100138001895EA93FA93EFB7EA93EDE9E2BFF20173
:1001480031962F01E991EFBFF991E9911895A8EC43
:10015800B0E033D0CE2EA2EDB0E02FD0E093600116
:100168004ED039D013D0C19878942197E0E0E88335
:10017800E883A881A23330F4EFD0B4D0E881EF5FF0
:10018800E883F7CF68D02196F0CFFFCFEBB7E064D4
:10019800EBBFE3E0E5BFE0E4EABF0895AA93F89473
:1001A800E199FECFE981FA81FFBBEEBBE881EDBBA7
:1001B800E29AE19A789423960895BA93AA93F894C8
:1001C800E199FECFE881F981FFBBEEBBE09AEDB380
:1001D80040C078943EC0E2E0E3BFEDE9E2BFE0E072
:1001E800EFBDE1E0EEBDEEEFEDBDE0E2ECBDE0E03D
:1001F800E7BDE6BDEBBDEABDE9BDE8BD0895E3E2B4
:10020800E7BBE8E2E8BBE7E0E4BBE8E3E5BBE0E046
:10021800E1BBEFEFE2BB0895EFE2F0E08E169F0638
:1002280018F0E1E0F0E00895E0E0F0E008950895C6
:10023800BA93AA93EDE9E2BFE9B7E160E9BF4424C4
:100248005524E881F9814E165F06D8F3E9B7EE7FA9
:10025800E9BF22960895E1E0EA1501F59D990EC0DF
:10026800B2D0A13020F0E0916001E15001C0E0E09F
:10027800E0936001ABD0F894ADD078949C990EC00F
:10028800A2D0A33620F4E0916001EF5F01C0E3E65D
:10029800E09360019BD0F8949DD07894AA20C9F48B
:1002A8009D990AC0E0E0EC1510F4CA9401C0CC2472
:1002B8008DD0F89496D078949C990BC0E3E6CE162E
:1002C80010F4C39402C0E3E6CE2E80D0F89489D00F
:1002D8007894AA2009F4DC2CE1E0EA1511F4D09016
:1002E80060010895D3D06AD083D0A3D0EF59FE4FD0
:1002F800308164D07DD098D0EF59FE4F2081032FF4
:1003080010E0183050F407FD02C0A89801C0A89A60
:10031800AA98AA9A000F1F5FF4CF022F10E0183096
:1003280050F407FD02C0A89801C0A89AAA98AA9AF2
:10033800000F1F5FF4CFA998A99AADD0249608950D
:10034800EBB7EBBFE9B7EA7F05C0EBB7E064EBBFFB
:10035800E9B7E560E9BF0895B39902C0849901C07F
:1003680001C0AA24B39902C0849B01C002C0E1E085
:10037800AE2EB39B09C0BB24A2E3B0E059DFB3990A
:1003880002C0E1E0BE2E0CC09B990AC0EB2DF0E044
:100398003196A1E0B0E05BD0BE2EA8E8B3E148DF1B
:1003A800E1E0EB1519F4C598B99A02C0C59AB99855
:1003B8000895EDEFEDBDE7EFECBD0895ED2DF0E00C
:1003C800A3E6B0E00895A09160010895A0EDB7E01C
:1003D8002FDFB6CFE2EDF0E0FA93EA93F4DFDEDE4A
:1003E800B4CFE8ECF0E0FA93EA93AC2DD7DEADCFCA
:1003F800AE1BBF0BEAE0F0E00895F195E195F040FF
:1004080008950024112490E1AA0FBB1F001C111CA1
:100418000E1A1F0A18F40E0E1F1E01C0A1609A952D
:1004280099F7FD01D00108951CD0EBDF0EF4E5DF4C
:100438000895E894B7FF04C0A095B0951196689404
:10044800F7FDDBDFDEDFFD010EF4D7DF0895E8946A
:10045800F7FF02C0D2DF6894EA23FB230EF4CDDF56
:100468000895E894F7FF02C0C8DF6894B7FF06C094
:10047800A095B095119600F8039400FA08951B2EE4
:10048800BF2FF12D1A2EAE2FE12D08953A932A93FE
:100498001A930A9308953B812A8119810881089546
:00000001FF
