:1000000023C0ABC0FDCFFCCFFBCFFACFF9CFF8CFE9
:100010006FC0B2C0F5CFF4CFF3CFF2CFF1CFF0CFB6
:10002000EFCFEECFEDCFC0F9A4B0999282F88090D7
:10003000630000000000000000010A0060012600CB
:100040000A00040030000000F894EE27ECBBF1E059
:10005000FBBFEBBFE5BFF8E1F1BDE1BD8DE0A2E084
:10006000BB27ED938A95E9F780E094E0A0E6ED9355
:100070000197E9F7EAE3F0E085919591009761F047
:10008000A591B59105901590BF01F00105900D92D5
:100090000197E1F7FB01F0CFEFE5EDBFE4E0EEBF44
:1000A000C0E6D1E077C0ECB3E03019F0E2E0E03038
:1000B00009F401C0F8CF40D1E881EDBBE4E0ECBB2E
:1000C000E2E0ECBB13C01A93ECB3E03019F0E2E0CD
:1000D000E03009F401C0F8CF2FD1E1E0ECBB1DB353
:1000E000EDB3EF3F08F010E0E12F1881239608955B
:1000F0000A921A92FA926A937A938A939A93AA939B
:10010000BA93EA93FA93EFB7EA931BD1F5013196CC
:100110005F01319775D0E130A0E0FA0781F48414D3
:10012000950410F013D108F001C0C19A0FD120F04E
:10013000C198E9B7EB7FE9BFF40131964F01E9912E
:10014000EFBFF991E991B991A9919991899179912B
:100150006991F990199009901895EA93EFB7EA938D
:10016000AA24BB2488249924E9B7E460E9BFE9D034
:10017000E991EFBFE9911895EA93FA93EFB7EA9303
:10018000EDE9E2BFF30131963F01E991EFBFF9914B
:10019000E991189528D016D00DD0E0E0F0E0DBD042
:1001A00092DF4E2E55247894C198A5D046D077D0B2
:1001B000FBCFFFCFEBB7E064EBBFE3E0E5BFE0E4EC
:1001C000EABF0895E2E0E3BFEDE9E2BFE0E0EFBDA2
:1001D000E1E0EEBDB6D0E0E0E7BDE6BDEBBDEABDD7
:1001E000E9BDE8BD0895E3E2E7BBE8E2E8BBE7E08C
:1001F000E4BBE8E3E5BBEFEFE2BBE0E0E1BB089581
:10020000E7E3F0E0AE16BF0618F0E1E0F0E0089595
:10021000E0E0F0E008950895EDE9E2BFE9B7E160BC
:10022000E9BF66247724E881F9816E167F06D8F34A
:10023000E9B7EE7FE9BF229608959C990BC08ED056
:1002400000240414050420F4F20131972F0102C0A8
:10025000442455249D990AC081D084D04E165F064F
:1002600018F4F201319601C07DD02F01E0916A01AE
:10027000F0916B01E415F50569F0B998E4EFF1E050
:1002800074D0B99AE8EEF3E070D0E0E0F0E063D02B
:100290004A9209DF40926A0150926B01089596D00C
:1002A00066D083D0E05AFE4F308161D06BD0E05AE7
:1002B000FE4F2081022F10E0183050F407FD02C0DD
:1002C000A89801C0A89AAA98AA9A000F1F5FF4CF15
:1002D000032F10E0183050F407FD02C0A89801C0A9
:1002E000A89AAA98AA9A000F1F5FF4CFA998A99A72
:1002F00072D024960895B39909C0DD24E8E8F3E1AB
:1003000034D0B39B02C0E1E0DE2E0DC0B3990BC028
:10031000E8E8F3E12AD0ED2DF0E03196DF01E2E0EC
:10032000F0E046D0DE2EE1E0ED1519F4C598B99A5B
:1003300002C0C59AB9980895E981FA81FFBBEEBB66
:100340000895EEEFEDBDE0E2ECBD0895F2013396C5
:100350008E169F060895FA93EA930895E4ECF9E067
:10036000FADF5ACFE3E6F0E00895F5DF55CFFADF84
:10037000E419F509DF01EAE0F0E00895F195E1956F
:10038000F04008950024112490E1AA0FBB1F001C27
:10039000111C0E1A1F0A18F40E0E1F1E01C0A160B8
:1003A0009A9599F7FD01D0010895ECDFFD010895BC
:1003B000E894B7FF04C0A095B09511966894F7FD36
:1003C000DDDFE0DFFD010EF4D9DF08953A932A93D3
:1003D0001A930A9308953B812A811981088108950F
:00000001FF
